{
  "contractName": "Hokodity",
  "abi": [
    {
      "inputs": [],
      "stateMutability": "nonpayable",
      "type": "constructor"
    },
    {
      "stateMutability": "payable",
      "type": "receive"
    },
    {
      "inputs": [
        {
          "internalType": "uint256",
          "name": "_amount",
          "type": "uint256"
        }
      ],
      "name": "withdraw",
      "outputs": [],
      "stateMutability": "nonpayable",
      "type": "function"
    },
    {
      "inputs": [],
      "name": "getBalance",
      "outputs": [
        {
          "internalType": "uint256",
          "name": "",
          "type": "uint256"
        }
      ],
      "stateMutability": "view",
      "type": "function"
    }
  ],
  "bytecode": "0x608060405234801561001057600080fd5b50336000806101000a81548173ffffffffffffffffffffffffffffffffffffffff021916908373ffffffffffffffffffffffffffffffffffffffff1602179055506102d2806100606000396000f3fe60806040526004361061002d5760003560e01c806312065fe0146100395780632e1a7d4d1461006457610034565b3661003457005b600080fd5b34801561004557600080fd5b5061004e61008d565b60405161005b91906101a6565b60405180910390f35b34801561007057600080fd5b5061008b600480360381019061008691906101f2565b610095565b005b600047905090565b60008054906101000a900473ffffffffffffffffffffffffffffffffffffffff1673ffffffffffffffffffffffffffffffffffffffff163373ffffffffffffffffffffffffffffffffffffffff1614610123576040517f08c379a000000000000000000000000000000000000000000000000000000000815260040161011a9061027c565b60405180910390fd5b60008054906101000a900473ffffffffffffffffffffffffffffffffffffffff1673ffffffffffffffffffffffffffffffffffffffff166108fc829081150290604051600060405180830381858888f19350505050158015610189573d6000803e3d6000fd5b5050565b6000819050919050565b6101a08161018d565b82525050565b60006020820190506101bb6000830184610197565b92915050565b600080fd5b6101cf8161018d565b81146101da57600080fd5b50565b6000813590506101ec816101c6565b92915050565b600060208284031215610208576102076101c1565b5b6000610216848285016101dd565b91505092915050565b600082825260208201905092915050565b7f6f6e6c792074686520746865206f776e65722063616e20776974686472617700600082015250565b6000610266601f8361021f565b915061027182610230565b602082019050919050565b6000602082019050818103600083015261029581610259565b905091905056fea26469706673582212204bde1fc8b5eef83cf30e2762e10559e84f360feef721bd8a6d806d6ffcafb8e964736f6c634300080d0033",
  "immutableReferences": {},
  "source": "// SPDX-License-Identifier: MIT\npragma solidity ^0.8.11;\n\ncontract Hokodity {\n  address payable private owner;\n\n  constructor() {\n    owner = payable(msg.sender);\n  }\n  \n  receive() external payable {}\n\n  function withdraw(uint _amount) external {\n    require(payable(msg.sender) == owner, \"only the the owner can withdraw\");\n    owner.transfer(_amount);\n  }\n\n  function getBalance() external view returns (uint) {\n    return address(this).balance;\n  }\n}\n",
  "sourcePath": "/Users/nguyenhoanggiang/Desktop/hokodity/hokolity/contracts/Hokodity.sol",
  "compiler": {
    "name": "solc",
    "version": "0.8.13+commit.abaa5c0e.Emscripten.clang"
  },
  "schemaVersion": "3.4.7",
  "updatedAt": "2022-05-15T17:54:29.597Z",
  "devdoc": {
    "kind": "dev",
    "methods": {},
    "version": 1
  },
  "userdoc": {
    "kind": "user",
    "methods": {},
    "version": 1
  }
}